:10000000FE01011300112E2300812C230201041391
:10001000FEA42623FEB42423FEC42703FE842783E4
:1000200000F707B30007851301C120830181240372
:100030000201011300008067FE01011300112E234D
:1000400000812C23020104130000A7B700A007932E
:10005000FEF42623000147B701400793FEF4242352
:10006000FE842583FEC42503FFF98097F98080E78D
:10007000FEA42223000007B70000079300078513A2
:1000800001C1208301812403020101130000806764
:00000001FF
