:10000000000000EF06008463060092630610506350
:100010000400DE630400CC6304104A6304324863C6
:100020000432566304326463043272631EA182B7E1
:10003000A180029300028313FFF2C39340500E335A
:100040000011B093003030B30001A0B3003020B3F2
:1000500001C0006F014080E7010000EF00018067F0
:10006000000200E70043006700008067FE01011303
:1000700000112E2300812C2302010413FEF42623F9
:10008000FEF42423FE442703FE84278300F707B3EE
:1000900001C120830181240302010113FE01011328
:1000A00000112E2300812C2302010413FEA4262319
:1000B000FEB42423FEC42703FE84278300F707B37E
:1000C0000007851301C1208301812403020101136C
:1000D00000008067FE01011300112E2300812C23F4
:1000E0000201041302A00793FEF42623FEC4278313
:1000F00040F007B3FEF42423FEC42783FFF7C79321
:10010000FEF42223FEC42703FE84278300E7D66380
:10011000FEC427830140006FFE442583FEC42503EF
:10012000F7C080E7000007930007851301C1208313
:0C0130000181240302010113000080671C
:00000001FF
