:10000000FE01011300112E2300812C230201041391
:10001000000037B700300793FEF42223000017B723
:1000200000100793FEF42423FE442783FEF42623C6
:100030000200006FFE842703FEC4278302F707B384
:10004000FEF42423FEC42783FFF78793FEF42623C0
:10005000FEC42703000017B700100793FCE7CCE3AA
:10006000FE842783000785130000653700600513B1
:1000700001C1208301812403020101130000806774
:00000001FF
